:020000040000FA
:10C00000680C0010E9C4000011C5000013C5000051
:10C0100015C5000017C5000019C50000000000008C
:10C020000000000000000000000000001BC5000030
:10C030001DC50000000000001FC50000A9C10000D0
:10C0400023C5000023C5000023C5000023C5000050
:10C0500023C5000023C5000023C5000023C5000040
:10C0600023C5000023C5000023C5000023C5000030
:10C0700023C5000023C5000023C5000023C5000020
:10C0800023C5000023C5000023C5000023C5000010
:10C0900023C5000023C5000023C5000023C5000000
:10C0A00023C5000023C5000023C5000023C50000F0
:10C0B00023C5000023C5000023C5000023C50000E0
:10C0C00000F002F800F041F80AA090E8000C824469
:10C0D0008344AAF10107DA4501D100F036F8AFF246
:10C0E000090EBAE80F0013F0010F18BFFB1A43F056
:10C0F00001031847DC060000FC060000103A24BFCC
:10C1000078C878C1FAD8520724BF30C830C144BFBC
:10C1100004680C60704700000023002400250026FE
:10C12000103A28BF78C1FBD8520728BF30C148BF9A
:10C130000B607047642900F05782002070471FB5DC
:10C1400000F041FB1FBD10B510BD00F002FB114611
:10C15000FFF7F5FF00F0B2F800F020FB03B4FFF7A3
:10C16000F2FF03BC00F028FB4FF04020806900F094
:10C170000100401C0A4991FBF0F00A490860704731
:10C1800007480849086047204FF0402148610846A9
:10C19000806920F00100886100204861704700003C
:10C1A000006CDC0200000010C3480068401CC2495B
:10C1B00008607047C04A1168014400E000BFBE4AF1
:10C1C00012689142FAD170472DE9A0470F464FEA15
:10C1D000071CB2FBFCF14FEA8219B9FBFCF54FEAF0
:10C1E0008119B5EB0903984609B900BFFEE7416222
:10C1F0004162C0F82880BDE8A08770B504460D46AE
:10C20000AE48806840F08000AC49886000E000BF24
:10C21000AA488069C0F380000028F8D0002020637D
:10C22000206B20F0080008302063206B20F07000A5
:10C2300010302063206B20F001002063206B20F47D
:10C2400000702063206B20F480702063FFF78CFF68
:10C250009B4A29462046FFF7B7FF0020E062E06ACC
:10C2600020F060006030E062E06A20F00800E062E8
:10C27000E06A20F00200E062206B20F00100401C28
:10C280002063206B20F4807000F58070206370BD07
:10C2900000E000BF8269C2F34012002AF9D10160B8
:10C2A000704710B504460B4604E013F8011B204606
:10C2B000FFF7EEFF18780028F7D110BD0EB5FFF795
:10C2C00053FF804800684FF47A72B0FBF2F1481EC9
:10C2D000B0F1807F00D31BE0481E4FF0E022506198
:10C2E00050170722002804DB53071E0E764B1E54FE
:10C2F00006E053071F0E754B00F00F06361F9F55C3
:10C3000000BF00204FF0E02290610720106100BFC5
:10C3100073206F4908660846C06820F46050C86002
:10C32000002008666548806820F4007000F5007001
:10C330006249886000E000BF6048006A00F00100C8
:10C340000028F8D0002063490860634CC8600846A4
:10C35000C06820F4706000F50060C8600846C068DE
:10C3600020F0E06000F18060C8600846C06820F4FA
:10C370004030C8600846C06820F00200C860084627
:10C38000C06820F00100401CC8600846C06A6FF316
:10C390001300C8620846006B6FF3130008634F4830
:10C3A000006820F020002030C1F800024B480068EF
:10C3B00020F010001030C1F800024848006820F05A
:10C3C0000400001DC1F800024448006820F0080085
:10C3D0000830C1F800024148006820F00200801CCB
:10C3E000C1F800023D48006820F00100401CC1F87F
:10C3F0000002084604604FF0FF30384908310860F9
:10C400003720344988604FF4E1313548FFF7F5FEB5
:10C4100073202F4908660846406920F4601048617F
:10C420000846406920F4003000F5003048610846B5
:10C43000806C20F0C06000F1007088640020086605
:10C4400039E02648001D006800F0010010B32348C1
:10C450000830006820F00100401C1E49C1F80802A5
:10C460000846806BC0F30750A0B10846806BC0F34C
:10C47000027078B90846806BC0F38D152A4619A161
:10C48000684600F069F869461548FFF70AFF002082
:10C49000104988631148001D0068C0F3400050B186
:10C4A0000E480830006820F00200801C0949C1F8DD
:10C4B000080237208860C4E7040000100010024022
:10C4C00000366E010000001000E400E018ED00E00E
:10C4D0000000014000000150190007010002015056
:10C4E00000C0014025640000DFF84400002805D0AA
:10C4F000DFF840100840DFF840100860DFF83C002B
:10C50000016841F4700101600D4880470D48004703
:10C51000FEE7FEE7FEE7FEE7FEE7FEE7FEE7FEE7F3
:10C52000FEE7FEE708480949094A0A4B7047000040
:10C5300000C0000080FFFF1F08ED00E088ED00E074
:10C5400081C10000C1C0000068000010680C00102C
:10C5500068080010680800100FB41CB5074B06AA45
:10C560007B4469460090059800F0DBF8002069469E
:10C5700000F0EAF81CBC5DF814FB0000E5010000C7
:10C580002DE9F0410E460446002020622046E16875
:10C59000884730B3252805D0D4E901219047206A87
:10C5A000401CF2E7E168204600278847050018D0C4
:10C5B000A5F14100192802D820354FF40067324612
:10C5C000294620462760FFF7B5FD40B1012804D079
:10C5D000F61D26F007060836D8E7361DD6E72846AA
:10C5E000DAE7206ABDE8F0812DE9F0410646002433
:10C5F00010687529314616A510D0AFF300800028C9
:10C6000002DA404213A507E031688A0701D512A576
:10C6100002E0490704D511A5012401E0AFF3008031
:10C6200000210A2206F1240709E0B0FBF2FCB0FB6E
:10C63000F2F302FB1C00303078541846491C0028E5
:10C64000F3D123462A463046BDE8F04100F00BB84E
:10C65000000000002D0000002B0000002000000062
:10C660007047704770472DE9F0470D46994692464E
:10C67000044600F124080168880604D5E06921F029
:10C680001001216000E00120A84201DD471B00E00D
:10C690000027A1697A1902EB0900081AA061207825
:10C6A000C00602D42046AFF30080002608E0D4E99B
:10C6B00001211AF806009047206A401C761C20626F
:10C6C0004E45F4DB2078C0060AD52046AFF3008043
:10C6D00006E0D4E9012130209047206A401C206206
:10C6E000381EA7F10107F4DC07E0D4E9012118F8AE
:10C6F00005009047206A401C2062281EA5F1010514
:10C70000F3DC2046AFF300802078000602D502203B
:10C71000BDE8F0870120FBE701694A1C0261087847
:10C72000704700B58FB0CDE9013100210591054971
:10C730007944CDE9031011466846FFF721FF0FB099
:10C7400000BD0000E5FFFFFF0A6802F8010B0A6068
:10C750007047754600F02CF8AE4605006946534612
:10C7600020F00700854618B020B5FFF7DBFEBDE8D6
:10C7700020404FF000064FF000074FF000084FF048
:10C78000000B21F00701AC46ACE8C009ACE8C009D9
:10C79000ACE8C009ACE8C0098D46704710B5044646
:10C7A000AFF300802046BDE81040FFF7D7BC000083
:10C7B000004870470800001001491820ABBEFEE792
:10C7C0002600020070474FF04070E1EE100A7047FB
:10C7D000F0C700000000001008000000FCC00000CE
:10C7E000F8C7000008000010600C000018C100002D
:08C7F000006CDC0200000000F7
:040000050000C0C176
:00000001FF
